{
  "contractName": "Registry",
  "abi": [
    {
      "inputs": [],
      "stateMutability": "nonpayable",
      "type": "constructor"
    },
    {
      "inputs": [
        {
          "internalType": "address",
          "name": "",
          "type": "address"
        }
      ],
      "name": "admins",
      "outputs": [
        {
          "internalType": "address",
          "name": "adminAddress",
          "type": "address"
        },
        {
          "internalType": "string",
          "name": "city",
          "type": "string"
        },
        {
          "internalType": "string",
          "name": "district",
          "type": "string"
        },
        {
          "internalType": "string",
          "name": "state",
          "type": "string"
        }
      ],
      "stateMutability": "view",
      "type": "function",
      "constant": true
    },
    {
      "inputs": [
        {
          "internalType": "string",
          "name": "",
          "type": "string"
        },
        {
          "internalType": "string",
          "name": "",
          "type": "string"
        },
        {
          "internalType": "string",
          "name": "",
          "type": "string"
        },
        {
          "internalType": "uint256",
          "name": "",
          "type": "uint256"
        }
      ],
      "name": "landDetalsMap",
      "outputs": [
        {
          "internalType": "address",
          "name": "owner",
          "type": "address"
        },
        {
          "internalType": "address",
          "name": "admin",
          "type": "address"
        },
        {
          "internalType": "uint256",
          "name": "propertyId",
          "type": "uint256"
        },
        {
          "internalType": "uint256",
          "name": "surveyNumber",
          "type": "uint256"
        },
        {
          "internalType": "uint256",
          "name": "index",
          "type": "uint256"
        },
        {
          "internalType": "bool",
          "name": "registered",
          "type": "bool"
        },
        {
          "internalType": "uint256",
          "name": "marketValue",
          "type": "uint256"
        },
        {
          "internalType": "bool",
          "name": "markAvailable",
          "type": "bool"
        },
        {
          "internalType": "uint256",
          "name": "noOfRequests",
          "type": "uint256"
        },
        {
          "internalType": "uint256",
          "name": "sqft",
          "type": "uint256"
        },
        {
          "internalType": "uint256",
          "name": "latitude",
          "type": "uint256"
        },
        {
          "internalType": "uint256",
          "name": "longitude",
          "type": "uint256"
        }
      ],
      "stateMutability": "view",
      "type": "function",
      "constant": true
    },
    {
      "inputs": [
        {
          "internalType": "address",
          "name": "",
          "type": "address"
        },
        {
          "internalType": "uint256",
          "name": "",
          "type": "uint256"
        }
      ],
      "name": "ownerMapsProperty",
      "outputs": [
        {
          "internalType": "uint256",
          "name": "surveyNumber",
          "type": "uint256"
        },
        {
          "internalType": "string",
          "name": "state",
          "type": "string"
        },
        {
          "internalType": "string",
          "name": "district",
          "type": "string"
        },
        {
          "internalType": "string",
          "name": "city",
          "type": "string"
        }
      ],
      "stateMutability": "view",
      "type": "function",
      "constant": true
    },
    {
      "inputs": [
        {
          "internalType": "address",
          "name": "",
          "type": "address"
        },
        {
          "internalType": "uint256",
          "name": "",
          "type": "uint256"
        }
      ],
      "name": "requestedLands",
      "outputs": [
        {
          "internalType": "uint256",
          "name": "surveyNumber",
          "type": "uint256"
        },
        {
          "internalType": "string",
          "name": "state",
          "type": "string"
        },
        {
          "internalType": "string",
          "name": "district",
          "type": "string"
        },
        {
          "internalType": "string",
          "name": "city",
          "type": "string"
        }
      ],
      "stateMutability": "view",
      "type": "function",
      "constant": true
    },
    {
      "inputs": [],
      "name": "superAdmin",
      "outputs": [
        {
          "internalType": "address",
          "name": "",
          "type": "address"
        }
      ],
      "stateMutability": "view",
      "type": "function",
      "constant": true
    },
    {
      "inputs": [],
      "name": "totalAdmins",
      "outputs": [
        {
          "internalType": "uint256",
          "name": "",
          "type": "uint256"
        }
      ],
      "stateMutability": "view",
      "type": "function",
      "constant": true
    },
    {
      "inputs": [
        {
          "internalType": "address",
          "name": "",
          "type": "address"
        }
      ],
      "name": "userProfile",
      "outputs": [
        {
          "internalType": "address",
          "name": "userAddr",
          "type": "address"
        },
        {
          "internalType": "string",
          "name": "fullName",
          "type": "string"
        },
        {
          "internalType": "string",
          "name": "gender",
          "type": "string"
        },
        {
          "internalType": "string",
          "name": "email",
          "type": "string"
        },
        {
          "internalType": "uint256",
          "name": "contact",
          "type": "uint256"
        },
        {
          "internalType": "string",
          "name": "residentialAddr",
          "type": "string"
        },
        {
          "internalType": "uint256",
          "name": "totalIndices",
          "type": "uint256"
        },
        {
          "internalType": "uint256",
          "name": "requestIndices",
          "type": "uint256"
        }
      ],
      "stateMutability": "view",
      "type": "function",
      "constant": true
    },
    {
      "inputs": [
        {
          "internalType": "address",
          "name": "_adminAddr",
          "type": "address"
        },
        {
          "internalType": "string",
          "name": "_state",
          "type": "string"
        },
        {
          "internalType": "string",
          "name": "_district",
          "type": "string"
        },
        {
          "internalType": "string",
          "name": "_city",
          "type": "string"
        }
      ],
      "name": "addAdmin",
      "outputs": [],
      "stateMutability": "nonpayable",
      "type": "function"
    },
    {
      "inputs": [],
      "name": "isAdmin",
      "outputs": [
        {
          "internalType": "bool",
          "name": "",
          "type": "bool"
        }
      ],
      "stateMutability": "view",
      "type": "function",
      "constant": true
    },
    {
      "inputs": [
        {
          "internalType": "string",
          "name": "_state",
          "type": "string"
        },
        {
          "internalType": "string",
          "name": "_district",
          "type": "string"
        },
        {
          "internalType": "string",
          "name": "_city",
          "type": "string"
        },
        {
          "internalType": "uint256",
          "name": "_propertyId",
          "type": "uint256"
        },
        {
          "internalType": "uint256",
          "name": "_surveyNo",
          "type": "uint256"
        },
        {
          "internalType": "address",
          "name": "_owner",
          "type": "address"
        },
        {
          "internalType": "uint256",
          "name": "_marketValue",
          "type": "uint256"
        },
        {
          "internalType": "uint256",
          "name": "_sqft",
          "type": "uint256"
        },
        {
          "internalType": "uint256",
          "name": "_latitude",
          "type": "uint256"
        },
        {
          "internalType": "uint256",
          "name": "_longitude",
          "type": "uint256"
        }
      ],
      "name": "registerLand",
      "outputs": [],
      "stateMutability": "nonpayable",
      "type": "function"
    },
    {
      "inputs": [
        {
          "internalType": "string",
          "name": "_fullName",
          "type": "string"
        },
        {
          "internalType": "string",
          "name": "_gender",
          "type": "string"
        },
        {
          "internalType": "string",
          "name": "_email",
          "type": "string"
        },
        {
          "internalType": "uint256",
          "name": "_contact",
          "type": "uint256"
        },
        {
          "internalType": "string",
          "name": "_residentialAddr",
          "type": "string"
        }
      ],
      "name": "setUserProfile",
      "outputs": [],
      "stateMutability": "nonpayable",
      "type": "function"
    },
    {
      "inputs": [
        {
          "internalType": "uint256",
          "name": "indexNo",
          "type": "uint256"
        }
      ],
      "name": "markMyPropertyAvailable",
      "outputs": [],
      "stateMutability": "nonpayable",
      "type": "function"
    },
    {
      "inputs": [
        {
          "internalType": "string",
          "name": "_state",
          "type": "string"
        },
        {
          "internalType": "string",
          "name": "_district",
          "type": "string"
        },
        {
          "internalType": "string",
          "name": "_city",
          "type": "string"
        },
        {
          "internalType": "uint256",
          "name": "_surveyNo",
          "type": "uint256"
        }
      ],
      "name": "RequestForBuy",
      "outputs": [],
      "stateMutability": "nonpayable",
      "type": "function"
    },
    {
      "inputs": [
        {
          "internalType": "uint256",
          "name": "_index",
          "type": "uint256"
        },
        {
          "internalType": "uint256",
          "name": "_reqNo",
          "type": "uint256"
        }
      ],
      "name": "AcceptRequest",
      "outputs": [],
      "stateMutability": "nonpayable",
      "type": "function"
    },
    {
      "inputs": [
        {
          "internalType": "string",
          "name": "_state",
          "type": "string"
        },
        {
          "internalType": "string",
          "name": "_district",
          "type": "string"
        },
        {
          "internalType": "string",
          "name": "_city",
          "type": "string"
        },
        {
          "internalType": "uint256",
          "name": "_surveyNo",
          "type": "uint256"
        }
      ],
      "name": "getLandDetails",
      "outputs": [
        {
          "internalType": "address",
          "name": "",
          "type": "address"
        },
        {
          "internalType": "uint256",
          "name": "",
          "type": "uint256"
        },
        {
          "internalType": "uint256",
          "name": "",
          "type": "uint256"
        },
        {
          "internalType": "uint256",
          "name": "",
          "type": "uint256"
        },
        {
          "internalType": "uint256",
          "name": "",
          "type": "uint256"
        },
        {
          "internalType": "uint256",
          "name": "",
          "type": "uint256"
        },
        {
          "internalType": "uint256",
          "name": "",
          "type": "uint256"
        }
      ],
      "stateMutability": "view",
      "type": "function",
      "constant": true
    },
    {
      "inputs": [
        {
          "internalType": "string",
          "name": "_state",
          "type": "string"
        },
        {
          "internalType": "string",
          "name": "_district",
          "type": "string"
        },
        {
          "internalType": "string",
          "name": "_city",
          "type": "string"
        },
        {
          "internalType": "uint256",
          "name": "_surveyNo",
          "type": "uint256"
        }
      ],
      "name": "getRequestCnt_propId",
      "outputs": [
        {
          "internalType": "uint256",
          "name": "",
          "type": "uint256"
        },
        {
          "internalType": "uint256",
          "name": "",
          "type": "uint256"
        }
      ],
      "stateMutability": "view",
      "type": "function",
      "constant": true
    },
    {
      "inputs": [
        {
          "internalType": "string",
          "name": "_state",
          "type": "string"
        },
        {
          "internalType": "string",
          "name": "_district",
          "type": "string"
        },
        {
          "internalType": "string",
          "name": "_city",
          "type": "string"
        },
        {
          "internalType": "uint256",
          "name": "_surveyNo",
          "type": "uint256"
        },
        {
          "internalType": "uint256",
          "name": "_reqIndex",
          "type": "uint256"
        }
      ],
      "name": "getRequesterDetail",
      "outputs": [
        {
          "internalType": "address",
          "name": "",
          "type": "address"
        }
      ],
      "stateMutability": "view",
      "type": "function",
      "constant": true
    },
    {
      "inputs": [
        {
          "internalType": "string",
          "name": "_state",
          "type": "string"
        },
        {
          "internalType": "string",
          "name": "_district",
          "type": "string"
        },
        {
          "internalType": "string",
          "name": "_city",
          "type": "string"
        },
        {
          "internalType": "uint256",
          "name": "_surveyNo",
          "type": "uint256"
        }
      ],
      "name": "isAvailable",
      "outputs": [
        {
          "internalType": "bool",
          "name": "",
          "type": "bool"
        }
      ],
      "stateMutability": "view",
      "type": "function",
      "constant": true
    },
    {
      "inputs": [
        {
          "internalType": "uint256",
          "name": "indx",
          "type": "uint256"
        }
      ],
      "name": "getOwnerOwns",
      "outputs": [
        {
          "internalType": "string",
          "name": "",
          "type": "string"
        },
        {
          "internalType": "string",
          "name": "",
          "type": "string"
        },
        {
          "internalType": "string",
          "name": "",
          "type": "string"
        },
        {
          "internalType": "uint256",
          "name": "",
          "type": "uint256"
        }
      ],
      "stateMutability": "view",
      "type": "function",
      "constant": true
    },
    {
      "inputs": [
        {
          "internalType": "uint256",
          "name": "indx",
          "type": "uint256"
        }
      ],
      "name": "getRequestedLands",
      "outputs": [
        {
          "internalType": "string",
          "name": "",
          "type": "string"
        },
        {
          "internalType": "string",
          "name": "",
          "type": "string"
        },
        {
          "internalType": "string",
          "name": "",
          "type": "string"
        },
        {
          "internalType": "uint256",
          "name": "",
          "type": "uint256"
        }
      ],
      "stateMutability": "view",
      "type": "function",
      "constant": true
    },
    {
      "inputs": [],
      "name": "getUserProfile",
      "outputs": [
        {
          "internalType": "string",
          "name": "",
          "type": "string"
        },
        {
          "internalType": "string",
          "name": "",
          "type": "string"
        },
        {
          "internalType": "string",
          "name": "",
          "type": "string"
        },
        {
          "internalType": "uint256",
          "name": "",
          "type": "uint256"
        },
        {
          "internalType": "string",
          "name": "",
          "type": "string"
        }
      ],
      "stateMutability": "view",
      "type": "function",
      "constant": true
    },
    {
      "inputs": [],
      "name": "getIndices",
      "outputs": [
        {
          "internalType": "uint256",
          "name": "",
          "type": "uint256"
        },
        {
          "internalType": "uint256",
          "name": "",
          "type": "uint256"
        }
      ],
      "stateMutability": "view",
      "type": "function",
      "constant": true
    },
    {
      "inputs": [
        {
          "internalType": "string",
          "name": "_state",
          "type": "string"
        },
        {
          "internalType": "string",
          "name": "_district",
          "type": "string"
        },
        {
          "internalType": "string",
          "name": "_city",
          "type": "string"
        },
        {
          "internalType": "uint256",
          "name": "_surveyNo",
          "type": "uint256"
        }
      ],
      "name": "didIRequested",
      "outputs": [
        {
          "internalType": "bool",
          "name": "",
          "type": "bool"
        }
      ],
      "stateMutability": "view",
      "type": "function",
      "constant": true
    }
  ],
  "bytecode": "0x608060405234801561001057600080fd5b50336000806101000a81548173ffffffffffffffffffffffffffffffffffffffff021916908373ffffffffffffffffffffffffffffffffffffffff160217905550614943806100606000396000f3fe608060405234801561001057600080fd5b506004361061014d5760003560e01c80636f61c744116100c3578063d06efd671161007c578063d06efd67146103f9578063d1dbeff21461042a578063d41cc5c81461045d578063e331ad7c14610479578063eaec23fa146104af578063eb68048b146104df5761014d565b80636f61c74414610335578063723be56b146103575780638a80e4e414610373578063992369da1461038f578063b6db75a0146103bf578063bfde241c146103dd5761014d565b80632ca305f3116101155780632ca305f3146102315780633bbd43b314610264578063429b62e51461029457806344e05734146102c75780635863056d146102e35780636d1b9a8e146103025761014d565b806303825d6c146101525780630e2279af1461016e5780631555ff1e146101a15780631c8e8962146101dc57806329575f6a14610213575b600080fd5b61016c60048036038101906101679190613a94565b6104fd565b005b61018860048036038101906101839190613b85565b6105ed565b6040516101989493929190613c5c565b60405180910390f35b6101bb60048036038101906101b69190613cb6565b6107c2565b6040516101d39c9b9a99989796959493929190613d9b565b60405180910390f35b6101f660048036038101906101f19190613e55565b6108e5565b60405161020a989796959493929190613e82565b60405180910390f35b61021b610b6d565b6040516102289190613f1c565b60405180910390f35b61024b60048036038101906102469190613f37565b610b91565b60405161025b9493929190613f64565b60405180910390f35b61027e60048036038101906102799190613fbe565b610ea6565b60405161028b9190613f1c565b60405180910390f35b6102ae60048036038101906102a99190613e55565b610f57565b6040516102be949392919061408d565b60405180910390f35b6102e160048036038101906102dc9190613f37565b61113f565b005b6102eb61157f565b6040516102f99291906140e7565b60405180910390f35b61031c60048036038101906103179190613f37565b61161c565b60405161032c9493929190613f64565b60405180910390f35b61033d611931565b60405161034e959493929190614110565b60405180910390f35b610371600480360381019061036c919061417f565b611cd8565b005b61038d60048036038101906103889190613cb6565b612361565b005b6103a960048036038101906103a49190613cb6565b612648565b6040516103b691906142b2565b60405180910390f35b6103c76126d1565b6040516103d491906142b2565b60405180910390f35b6103f760048036038101906103f291906142cd565b61277a565b005b610413600480360381019061040e9190613cb6565b612832565b6040516104219291906140e7565b60405180910390f35b610444600480360381019061043f9190613b85565b612924565b6040516104549493929190613c5c565b60405180910390f35b610477600480360381019061047291906143b8565b612af9565b005b610493600480360381019061048e9190613cb6565b6135ef565b6040516104a697969594939291906143f8565b60405180910390f35b6104c960048036038101906104c49190613cb6565b6136c4565b6040516104d691906142b2565b60405180910390f35b6104e76137f3565b6040516104f49190614467565b60405180910390f35b6000600260008673ffffffffffffffffffffffffffffffffffffffff1673ffffffffffffffffffffffffffffffffffffffff168152602001908152602001600020905060016000815480929190610553906144b1565b9190505550848160000160006101000a81548173ffffffffffffffffffffffffffffffffffffffff021916908373ffffffffffffffffffffffffffffffffffffffff160217905550818160010190805190602001906105b39291906137f9565b50828160020190805190602001906105cc9291906137f9565b50838160030190805190602001906105e59291906137f9565b505050505050565b60046020528160005260406000206020528060005260406000206000915091505080600001549080600101805461062390614529565b80601f016020809104026020016040519081016040528092919081815260200182805461064f90614529565b801561069c5780601f106106715761010080835404028352916020019161069c565b820191906000526020600020905b81548152906001019060200180831161067f57829003601f168201915b5050505050908060020180546106b190614529565b80601f01602080910402602001604051908101604052809291908181526020018280546106dd90614529565b801561072a5780601f106106ff5761010080835404028352916020019161072a565b820191906000526020600020905b81548152906001019060200180831161070d57829003601f168201915b50505050509080600301805461073f90614529565b80601f016020809104026020016040519081016040528092919081815260200182805461076b90614529565b80156107b85780601f1061078d576101008083540402835291602001916107b8565b820191906000526020600020905b81548152906001019060200180831161079b57829003601f168201915b5050505050905084565b60058480516020810182018051848252602083016020850120818352809550505050505083805160208101820180518482526020830160208501208183528095505050505050828051602081018201805184825260208301602085012081835280955050505050506020528060005260406000206000935093505050508060000160009054906101000a900473ffffffffffffffffffffffffffffffffffffffff16908060010160009054906101000a900473ffffffffffffffffffffffffffffffffffffffff16908060020154908060030154908060040154908060050160009054906101000a900460ff16908060060154908060070160009054906101000a900460ff169080600901549080600a01549080600b01549080600c015490508c565b60066020528060005260406000206000915090508060000160009054906101000a900473ffffffffffffffffffffffffffffffffffffffff169080600101805461092e90614529565b80601f016020809104026020016040519081016040528092919081815260200182805461095a90614529565b80156109a75780601f1061097c576101008083540402835291602001916109a7565b820191906000526020600020905b81548152906001019060200180831161098a57829003601f168201915b5050505050908060020180546109bc90614529565b80601f01602080910402602001604051908101604052809291908181526020018280546109e890614529565b8015610a355780601f10610a0a57610100808354040283529160200191610a35565b820191906000526020600020905b815481529060010190602001808311610a1857829003601f168201915b505050505090806003018054610a4a90614529565b80601f0160208091040260200160405190810160405280929190818152602001828054610a7690614529565b8015610ac35780601f10610a9857610100808354040283529160200191610ac3565b820191906000526020600020905b815481529060010190602001808311610aa657829003601f168201915b505050505090806004015490806005018054610ade90614529565b80601f0160208091040260200160405190810160405280929190818152602001828054610b0a90614529565b8015610b575780601f10610b2c57610100808354040283529160200191610b57565b820191906000526020600020905b815481529060010190602001808311610b3a57829003601f168201915b5050505050908060060154908060070154905088565b60008054906101000a900473ffffffffffffffffffffffffffffffffffffffff1681565b6060806060600080600460003373ffffffffffffffffffffffffffffffffffffffff1673ffffffffffffffffffffffffffffffffffffffff16815260200190815260200160002060008781526020019081526020016000206000015490506000600460003373ffffffffffffffffffffffffffffffffffffffff1673ffffffffffffffffffffffffffffffffffffffff16815260200190815260200160002060008881526020019081526020016000206001018054610c4f90614529565b80601f0160208091040260200160405190810160405280929190818152602001828054610c7b90614529565b8015610cc85780601f10610c9d57610100808354040283529160200191610cc8565b820191906000526020600020905b815481529060010190602001808311610cab57829003601f168201915b505050505090506000600460003373ffffffffffffffffffffffffffffffffffffffff1673ffffffffffffffffffffffffffffffffffffffff16815260200190815260200160002060008981526020019081526020016000206002018054610d2f90614529565b80601f0160208091040260200160405190810160405280929190818152602001828054610d5b90614529565b8015610da85780601f10610d7d57610100808354040283529160200191610da8565b820191906000526020600020905b815481529060010190602001808311610d8b57829003601f168201915b505050505090506000600460003373ffffffffffffffffffffffffffffffffffffffff1673ffffffffffffffffffffffffffffffffffffffff16815260200190815260200160002060008a81526020019081526020016000206003018054610e0f90614529565b80601f0160208091040260200160405190810160405280929190818152602001828054610e3b90614529565b8015610e885780601f10610e5d57610100808354040283529160200191610e88565b820191906000526020600020905b815481529060010190602001808311610e6b57829003601f168201915b50505050509050828282869750975097509750505050509193509193565b600080600587604051610eb99190614597565b908152602001604051809103902086604051610ed59190614597565b908152602001604051809103902085604051610ef19190614597565b90815260200160405180910390206000858152602001908152602001600020600801600084815260200190815260200160002060000160009054906101000a900473ffffffffffffffffffffffffffffffffffffffff1690508091505095945050505050565b60026020528060005260406000206000915090508060000160009054906101000a900473ffffffffffffffffffffffffffffffffffffffff1690806001018054610fa090614529565b80601f0160208091040260200160405190810160405280929190818152602001828054610fcc90614529565b80156110195780601f10610fee57610100808354040283529160200191611019565b820191906000526020600020905b815481529060010190602001808311610ffc57829003601f168201915b50505050509080600201805461102e90614529565b80601f016020809104026020016040519081016040528092919081815260200182805461105a90614529565b80156110a75780601f1061107c576101008083540402835291602001916110a7565b820191906000526020600020905b81548152906001019060200180831161108a57829003601f168201915b5050505050908060030180546110bc90614529565b80601f01602080910402602001604051908101604052809291908181526020018280546110e890614529565b80156111355780601f1061110a57610100808354040283529160200191611135565b820191906000526020600020905b81548152906001019060200180831161111857829003601f168201915b5050505050905084565b6000600360003373ffffffffffffffffffffffffffffffffffffffff1673ffffffffffffffffffffffffffffffffffffffff1681526020019081526020016000206000838152602001908152602001600020600101805461119f90614529565b80601f01602080910402602001604051908101604052809291908181526020018280546111cb90614529565b80156112185780601f106111ed57610100808354040283529160200191611218565b820191906000526020600020905b8154815290600101906020018083116111fb57829003601f168201915b505050505090506000600360003373ffffffffffffffffffffffffffffffffffffffff1673ffffffffffffffffffffffffffffffffffffffff1681526020019081526020016000206000848152602001908152602001600020600201805461127f90614529565b80601f01602080910402602001604051908101604052809291908181526020018280546112ab90614529565b80156112f85780601f106112cd576101008083540402835291602001916112f8565b820191906000526020600020905b8154815290600101906020018083116112db57829003601f168201915b505050505090506000600360003373ffffffffffffffffffffffffffffffffffffffff1673ffffffffffffffffffffffffffffffffffffffff1681526020019081526020016000206000858152602001908152602001600020600301805461135f90614529565b80601f016020809104026020016040519081016040528092919081815260200182805461138b90614529565b80156113d85780601f106113ad576101008083540402835291602001916113d8565b820191906000526020600020905b8154815290600101906020018083116113bb57829003601f168201915b505050505090506000600360003373ffffffffffffffffffffffffffffffffffffffff1673ffffffffffffffffffffffffffffffffffffffff16815260200190815260200160002060008681526020019081526020016000206000015490506000151560058560405161144b9190614597565b9081526020016040518091039020846040516114679190614597565b9081526020016040518091039020836040516114839190614597565b9081526020016040518091039020600083815260200190815260200160002060070160009054906101000a900460ff161515146114f5576040517f08c379a00000000000000000000000000000000000000000000000000000000081526004016114ec90614620565b60405180910390fd5b60016005856040516115079190614597565b9081526020016040518091039020846040516115239190614597565b90815260200160405180910390208360405161153f9190614597565b9081526020016040518091039020600083815260200190815260200160002060070160006101000a81548160ff0219169083151502179055505050505050565b6000806000600660003373ffffffffffffffffffffffffffffffffffffffff1673ffffffffffffffffffffffffffffffffffffffff1681526020019081526020016000206006015490506000600660003373ffffffffffffffffffffffffffffffffffffffff1673ffffffffffffffffffffffffffffffffffffffff16815260200190815260200160002060070154905081819350935050509091565b6060806060600080600360003373ffffffffffffffffffffffffffffffffffffffff1673ffffffffffffffffffffffffffffffffffffffff16815260200190815260200160002060008781526020019081526020016000206000015490506000600360003373ffffffffffffffffffffffffffffffffffffffff1673ffffffffffffffffffffffffffffffffffffffff168152602001908152602001600020600088815260200190815260200160002060010180546116da90614529565b80601f016020809104026020016040519081016040528092919081815260200182805461170690614529565b80156117535780601f1061172857610100808354040283529160200191611753565b820191906000526020600020905b81548152906001019060200180831161173657829003601f168201915b505050505090506000600360003373ffffffffffffffffffffffffffffffffffffffff1673ffffffffffffffffffffffffffffffffffffffff168152602001908152602001600020600089815260200190815260200160002060020180546117ba90614529565b80601f01602080910402602001604051908101604052809291908181526020018280546117e690614529565b80156118335780601f1061180857610100808354040283529160200191611833565b820191906000526020600020905b81548152906001019060200180831161181657829003601f168201915b505050505090506000600360003373ffffffffffffffffffffffffffffffffffffffff1673ffffffffffffffffffffffffffffffffffffffff16815260200190815260200160002060008a8152602001908152602001600020600301805461189a90614529565b80601f01602080910402602001604051908101604052809291908181526020018280546118c690614529565b80156119135780601f106118e857610100808354040283529160200191611913565b820191906000526020600020905b8154815290600101906020018083116118f657829003601f168201915b50505050509050828282869750975097509750505050509193509193565b6060806060600060606000600660003373ffffffffffffffffffffffffffffffffffffffff1673ffffffffffffffffffffffffffffffffffffffff168152602001908152602001600020600101805461198990614529565b80601f01602080910402602001604051908101604052809291908181526020018280546119b590614529565b8015611a025780601f106119d757610100808354040283529160200191611a02565b820191906000526020600020905b8154815290600101906020018083116119e557829003601f168201915b505050505090506000600660003373ffffffffffffffffffffffffffffffffffffffff1673ffffffffffffffffffffffffffffffffffffffff1681526020019081526020016000206002018054611a5890614529565b80601f0160208091040260200160405190810160405280929190818152602001828054611a8490614529565b8015611ad15780601f10611aa657610100808354040283529160200191611ad1565b820191906000526020600020905b815481529060010190602001808311611ab457829003601f168201915b505050505090506000600660003373ffffffffffffffffffffffffffffffffffffffff1673ffffffffffffffffffffffffffffffffffffffff1681526020019081526020016000206003018054611b2790614529565b80601f0160208091040260200160405190810160405280929190818152602001828054611b5390614529565b8015611ba05780601f10611b7557610100808354040283529160200191611ba0565b820191906000526020600020905b815481529060010190602001808311611b8357829003601f168201915b505050505090506000600660003373ffffffffffffffffffffffffffffffffffffffff1673ffffffffffffffffffffffffffffffffffffffff1681526020019081526020016000206004015490506000600660003373ffffffffffffffffffffffffffffffffffffffff1673ffffffffffffffffffffffffffffffffffffffff1681526020019081526020016000206005018054611c3d90614529565b80601f0160208091040260200160405190810160405280929190818152602001828054611c6990614529565b8015611cb65780601f10611c8b57610100808354040283529160200191611cb6565b820191906000526020600020905b815481529060010190602001808311611c9957829003601f168201915b5050505050905084848484849950995099509950995050505050509091929394565b3373ffffffffffffffffffffffffffffffffffffffff16600260003373ffffffffffffffffffffffffffffffffffffffff1673ffffffffffffffffffffffffffffffffffffffff16815260200190815260200160002060000160009054906101000a900473ffffffffffffffffffffffffffffffffffffffff1673ffffffffffffffffffffffffffffffffffffffff1614611da8576040517f08c379a0000000000000000000000000000000000000000000000000000000008152600401611d9f9061468c565b60405180910390fd5b89604051602001611db99190614597565b60405160208183030381529060405280519060200120600260003373ffffffffffffffffffffffffffffffffffffffff1673ffffffffffffffffffffffffffffffffffffffff168152602001908152602001600020600301604051602001611e219190614740565b60405160208183030381529060405280519060200120148015611ed0575088604051602001611e509190614597565b60405160208183030381529060405280519060200120600260003373ffffffffffffffffffffffffffffffffffffffff1673ffffffffffffffffffffffffffffffffffffffff168152602001908152602001600020600201604051602001611eb89190614740565b60405160208183030381529060405280519060200120145b8015611f68575087604051602001611ee89190614597565b60405160208183030381529060405280519060200120600260003373ffffffffffffffffffffffffffffffffffffffff1673ffffffffffffffffffffffffffffffffffffffff168152602001908152602001600020600101604051602001611f509190614740565b60405160208183030381529060405280519060200120145b611fa7576040517f08c379a0000000000000000000000000000000000000000000000000000000008152600401611f9e906147c9565b60405180910390fd5b6000151560058b604051611fbb9190614597565b90815260200160405180910390208a604051611fd79190614597565b908152602001604051809103902089604051611ff39190614597565b9081526020016040518091039020600088815260200190815260200160002060050160009054906101000a900460ff16151514612065576040517f08c379a000000000000000000000000000000000000000000000000000000000815260040161205c9061485b565b60405180910390fd5b600060058b6040516120779190614597565b90815260200160405180910390208a6040516120939190614597565b9081526020016040518091039020896040516120af9190614597565b9081526020016040518091039020600088815260200190815260200160002090506000600360008873ffffffffffffffffffffffffffffffffffffffff1673ffffffffffffffffffffffffffffffffffffffff1681526020019081526020016000206000600660008a73ffffffffffffffffffffffffffffffffffffffff1673ffffffffffffffffffffffffffffffffffffffff1681526020019081526020016000206006015481526020019081526020016000209050868260000160006101000a81548173ffffffffffffffffffffffffffffffffffffffff021916908373ffffffffffffffffffffffffffffffffffffffff160217905550338260010160006101000a81548173ffffffffffffffffffffffffffffffffffffffff021916908373ffffffffffffffffffffffffffffffffffffffff160217905550888260020181905550878260030181905550600660008873ffffffffffffffffffffffffffffffffffffffff1673ffffffffffffffffffffffffffffffffffffffff16815260200190815260200160002060060154826004018190555060018260050160006101000a81548160ff02191690831515021790555085826006018190555060008260070160006101000a81548160ff0219169083151502179055508482600a01819055508282600c01819055508382600b01819055508781600001819055508b8160010190805190602001906122c89291906137f9565b508a8160020190805190602001906122e19291906137f9565b50898160030190805190602001906122fa9291906137f9565b50600660008873ffffffffffffffffffffffffffffffffffffffff1673ffffffffffffffffffffffffffffffffffffffff168152602001908152602001600020600601600081548092919061234e906144b1565b9190505550505050505050505050505050565b60006005856040516123739190614597565b90815260200160405180910390208460405161238f9190614597565b9081526020016040518091039020836040516123ab9190614597565b908152602001604051809103902060008381526020019081526020016000209050600115158160070160009054906101000a900460ff16151514612424576040517f08c379a000000000000000000000000000000000000000000000000000000000815260040161241b906148ed565b60405180910390fd5b6000816009015490503382600801600083815260200190815260200160002060000160006101000a81548173ffffffffffffffffffffffffffffffffffffffff021916908373ffffffffffffffffffffffffffffffffffffffff160217905550600660003373ffffffffffffffffffffffffffffffffffffffff1673ffffffffffffffffffffffffffffffffffffffff16815260200190815260200160002060070154826008016000838152602001908152602001600020600101819055508160090160008154809291906124f8906144b1565b91905055506000600460003373ffffffffffffffffffffffffffffffffffffffff1673ffffffffffffffffffffffffffffffffffffffff1681526020019081526020016000206000600660003373ffffffffffffffffffffffffffffffffffffffff1673ffffffffffffffffffffffffffffffffffffffff1681526020019081526020016000206007015481526020019081526020016000209050838160000181905550868160010190805190602001906125b49291906137f9565b50858160020190805190602001906125cd9291906137f9565b50848160030190805190602001906125e69291906137f9565b50600660003373ffffffffffffffffffffffffffffffffffffffff1673ffffffffffffffffffffffffffffffffffffffff168152602001908152602001600020600701600081548092919061263a906144b1565b919050555050505050505050565b60008060058660405161265b9190614597565b9081526020016040518091039020856040516126779190614597565b9081526020016040518091039020846040516126939190614597565b9081526020016040518091039020600084815260200190815260200160002060070160009054906101000a900460ff16905080915050949350505050565b60003373ffffffffffffffffffffffffffffffffffffffff16600260003373ffffffffffffffffffffffffffffffffffffffff1673ffffffffffffffffffffffffffffffffffffffff16815260200190815260200160002060000160009054906101000a900473ffffffffffffffffffffffffffffffffffffffff1673ffffffffffffffffffffffffffffffffffffffff1614156127725760019050612777565b600090505b90565b6000600660003373ffffffffffffffffffffffffffffffffffffffff1673ffffffffffffffffffffffffffffffffffffffff1681526020019081526020016000209050858160010190805190602001906127d59291906137f9565b50848160020190805190602001906127ee9291906137f9565b50838160030190805190602001906128079291906137f9565b50828160040181905550818160050190805190602001906128299291906137f9565b50505050505050565b60008060006005876040516128479190614597565b9081526020016040518091039020866040516128639190614597565b90815260200160405180910390208560405161287f9190614597565b9081526020016040518091039020600085815260200190815260200160002060090154905060006005886040516128b69190614597565b9081526020016040518091039020876040516128d29190614597565b9081526020016040518091039020866040516128ee9190614597565b90815260200160405180910390206000868152602001908152602001600020600201549050818193509350505094509492505050565b60036020528160005260406000206020528060005260406000206000915091505080600001549080600101805461295a90614529565b80601f016020809104026020016040519081016040528092919081815260200182805461298690614529565b80156129d35780601f106129a8576101008083540402835291602001916129d3565b820191906000526020600020905b8154815290600101906020018083116129b657829003601f168201915b5050505050908060020180546129e890614529565b80601f0160208091040260200160405190810160405280929190818152602001828054612a1490614529565b8015612a615780601f10612a3657610100808354040283529160200191612a61565b820191906000526020600020905b815481529060010190602001808311612a4457829003601f168201915b505050505090806003018054612a7690614529565b80601f0160208091040260200160405190810160405280929190818152602001828054612aa290614529565b8015612aef5780601f10612ac457610100808354040283529160200191612aef565b820191906000526020600020905b815481529060010190602001808311612ad257829003601f168201915b5050505050905084565b6000600360003373ffffffffffffffffffffffffffffffffffffffff1673ffffffffffffffffffffffffffffffffffffffff16815260200190815260200160002060008481526020019081526020016000206000015490506000600360003373ffffffffffffffffffffffffffffffffffffffff1673ffffffffffffffffffffffffffffffffffffffff16815260200190815260200160002060008581526020019081526020016000206001018054612bb190614529565b80601f0160208091040260200160405190810160405280929190818152602001828054612bdd90614529565b8015612c2a5780601f10612bff57610100808354040283529160200191612c2a565b820191906000526020600020905b815481529060010190602001808311612c0d57829003601f168201915b505050505090506000600360003373ffffffffffffffffffffffffffffffffffffffff1673ffffffffffffffffffffffffffffffffffffffff16815260200190815260200160002060008681526020019081526020016000206002018054612c9190614529565b80601f0160208091040260200160405190810160405280929190818152602001828054612cbd90614529565b8015612d0a5780601f10612cdf57610100808354040283529160200191612d0a565b820191906000526020600020905b815481529060010190602001808311612ced57829003601f168201915b505050505090506000600360003373ffffffffffffffffffffffffffffffffffffffff1673ffffffffffffffffffffffffffffffffffffffff16815260200190815260200160002060008781526020019081526020016000206003018054612d7190614529565b80601f0160208091040260200160405190810160405280929190818152602001828054612d9d90614529565b8015612dea5780601f10612dbf57610100808354040283529160200191612dea565b820191906000526020600020905b815481529060010190602001808311612dcd57829003601f168201915b505050505090506000600584604051612e039190614597565b908152602001604051809103902083604051612e1f9190614597565b908152602001604051809103902082604051612e3b9190614597565b90815260200160405180910390206000868152602001908152602001600020600801600087815260200190815260200160002060000160009054906101000a900473ffffffffffffffffffffffffffffffffffffffff1690506000600585604051612ea69190614597565b908152602001604051809103902084604051612ec29190614597565b908152602001604051809103902083604051612ede9190614597565b9081526020016040518091039020600087815260200190815260200160002060080160008881526020019081526020016000206001015490506000600586604051612f299190614597565b908152602001604051809103902085604051612f459190614597565b908152602001604051809103902084604051612f619190614597565b9081526020016040518091039020600088815260200190815260200160002060090154905060005b81811015613204576000600588604051612fa39190614597565b908152602001604051809103902087604051612fbf9190614597565b908152602001604051809103902086604051612fdb9190614597565b908152602001604051809103902060008a8152602001908152602001600020600801600083815260200190815260200160002060000160009054906101000a900473ffffffffffffffffffffffffffffffffffffffff16905060006005896040516130469190614597565b9081526020016040518091039020886040516130629190614597565b90815260200160405180910390208760405161307e9190614597565b908152602001604051809103902060008b81526020019081526020016000206008016000848152602001908152602001600020600101549050600460008373ffffffffffffffffffffffffffffffffffffffff1673ffffffffffffffffffffffffffffffffffffffff1681526020019081526020016000206000828152602001908152602001600020600080820160009055600182016000613120919061387f565b600282016000613130919061387f565b600382016000613140919061387f565b50506005896040516131529190614597565b90815260200160405180910390208860405161316e9190614597565b90815260200160405180910390208760405161318a9190614597565b908152602001604051809103902060008b81526020019081526020016000206008016000848152602001908152602001600020600080820160006101000a81549073ffffffffffffffffffffffffffffffffffffffff021916905560018201600090555050505080806131fc906144b1565b915050612f89565b50826005876040516132169190614597565b9081526020016040518091039020866040516132329190614597565b90815260200160405180910390208560405161324e9190614597565b9081526020016040518091039020600089815260200190815260200160002060000160006101000a81548173ffffffffffffffffffffffffffffffffffffffff021916908373ffffffffffffffffffffffffffffffffffffffff16021790555060006005876040516132c09190614597565b9081526020016040518091039020866040516132dc9190614597565b9081526020016040518091039020856040516132f89190614597565b9081526020016040518091039020600089815260200190815260200160002060070160006101000a81548160ff02191690831515021790555060006005876040516133439190614597565b90815260200160405180910390208660405161335f9190614597565b90815260200160405180910390208560405161337b9190614597565b9081526020016040518091039020600089815260200190815260200160002060090181905550600360003373ffffffffffffffffffffffffffffffffffffffff1673ffffffffffffffffffffffffffffffffffffffff16815260200190815260200160002060008a815260200190815260200160002060008082016000905560018201600061340a919061387f565b60028201600061341a919061387f565b60038201600061342a919061387f565b50506000600660008573ffffffffffffffffffffffffffffffffffffffff1673ffffffffffffffffffffffffffffffffffffffff1681526020019081526020016000206006015490506000600360008673ffffffffffffffffffffffffffffffffffffffff1673ffffffffffffffffffffffffffffffffffffffff16815260200190815260200160002060008381526020019081526020016000209050888160000181905550878160010190805190602001906134e89291906137f9565b50868160020190805190602001906135019291906137f9565b508581600301908051906020019061351a9291906137f9565b508160058960405161352c9190614597565b9081526020016040518091039020886040516135489190614597565b9081526020016040518091039020876040516135649190614597565b908152602001604051809103902060008b815260200190815260200160002060040181905550600660008673ffffffffffffffffffffffffffffffffffffffff1673ffffffffffffffffffffffffffffffffffffffff16815260200190815260200160002060060160008154809291906135dd906144b1565b91905055505050505050505050505050565b60008060008060008060008060058c60405161360b9190614597565b90815260200160405180910390208b6040516136279190614597565b90815260200160405180910390208a6040516136439190614597565b908152602001604051809103902060008a815260200190815260200160002090508060000160009054906101000a900473ffffffffffffffffffffffffffffffffffffffff1681600201548260040154836006015484600a015485600b015486600c0154975097509750975097509750975050949950949992975094509450565b6000806005866040516136d79190614597565b9081526020016040518091039020856040516136f39190614597565b90815260200160405180910390208460405161370f9190614597565b908152602001604051809103902060008481526020019081526020016000209050600081600901549050600081141561374d576000925050506137eb565b60005b818110156137e3573373ffffffffffffffffffffffffffffffffffffffff1683600801600083815260200190815260200160002060000160009054906101000a900473ffffffffffffffffffffffffffffffffffffffff1673ffffffffffffffffffffffffffffffffffffffff1614156137d057600193505050506137eb565b80806137db906144b1565b915050613750565b506000925050505b949350505050565b60015481565b82805461380590614529565b90600052602060002090601f016020900481019282613827576000855561386e565b82601f1061384057805160ff191683800117855561386e565b8280016001018555821561386e579182015b8281111561386d578251825591602001919060010190613852565b5b50905061387b91906138bf565b5090565b50805461388b90614529565b6000825580601f1061389d57506138bc565b601f0160209004906000526020600020908101906138bb91906138bf565b5b50565b5b808211156138d85760008160009055506001016138c0565b5090565b6000604051905090565b600080fd5b600080fd5b600073ffffffffffffffffffffffffffffffffffffffff82169050919050565b600061391b826138f0565b9050919050565b61392b81613910565b811461393657600080fd5b50565b60008135905061394881613922565b92915050565b600080fd5b600080fd5b6000601f19601f8301169050919050565b7f4e487b7100000000000000000000000000000000000000000000000000000000600052604160045260246000fd5b6139a182613958565b810181811067ffffffffffffffff821117156139c0576139bf613969565b5b80604052505050565b60006139d36138dc565b90506139df8282613998565b919050565b600067ffffffffffffffff8211156139ff576139fe613969565b5b613a0882613958565b9050602081019050919050565b82818337600083830152505050565b6000613a37613a32846139e4565b6139c9565b905082815260208101848484011115613a5357613a52613953565b5b613a5e848285613a15565b509392505050565b600082601f830112613a7b57613a7a61394e565b5b8135613a8b848260208601613a24565b91505092915050565b60008060008060808587031215613aae57613aad6138e6565b5b6000613abc87828801613939565b945050602085013567ffffffffffffffff811115613add57613adc6138eb565b5b613ae987828801613a66565b935050604085013567ffffffffffffffff811115613b0a57613b096138eb565b5b613b1687828801613a66565b925050606085013567ffffffffffffffff811115613b3757613b366138eb565b5b613b4387828801613a66565b91505092959194509250565b6000819050919050565b613b6281613b4f565b8114613b6d57600080fd5b50565b600081359050613b7f81613b59565b92915050565b60008060408385031215613b9c57613b9b6138e6565b5b6000613baa85828601613939565b9250506020613bbb85828601613b70565b9150509250929050565b613bce81613b4f565b82525050565b600081519050919050565b600082825260208201905092915050565b60005b83811015613c0e578082015181840152602081019050613bf3565b83811115613c1d576000848401525b50505050565b6000613c2e82613bd4565b613c388185613bdf565b9350613c48818560208601613bf0565b613c5181613958565b840191505092915050565b6000608082019050613c716000830187613bc5565b8181036020830152613c838186613c23565b90508181036040830152613c978185613c23565b90508181036060830152613cab8184613c23565b905095945050505050565b60008060008060808587031215613cd057613ccf6138e6565b5b600085013567ffffffffffffffff811115613cee57613ced6138eb565b5b613cfa87828801613a66565b945050602085013567ffffffffffffffff811115613d1b57613d1a6138eb565b5b613d2787828801613a66565b935050604085013567ffffffffffffffff811115613d4857613d476138eb565b5b613d5487828801613a66565b9250506060613d6587828801613b70565b91505092959194509250565b613d7a81613910565b82525050565b60008115159050919050565b613d9581613d80565b82525050565b600061018082019050613db1600083018f613d71565b613dbe602083018e613d71565b613dcb604083018d613bc5565b613dd8606083018c613bc5565b613de5608083018b613bc5565b613df260a083018a613d8c565b613dff60c0830189613bc5565b613e0c60e0830188613d8c565b613e1a610100830187613bc5565b613e28610120830186613bc5565b613e36610140830185613bc5565b613e44610160830184613bc5565b9d9c50505050505050505050505050565b600060208284031215613e6b57613e6a6138e6565b5b6000613e7984828501613939565b91505092915050565b600061010082019050613e98600083018b613d71565b8181036020830152613eaa818a613c23565b90508181036040830152613ebe8189613c23565b90508181036060830152613ed28188613c23565b9050613ee16080830187613bc5565b81810360a0830152613ef38186613c23565b9050613f0260c0830185613bc5565b613f0f60e0830184613bc5565b9998505050505050505050565b6000602082019050613f316000830184613d71565b92915050565b600060208284031215613f4d57613f4c6138e6565b5b6000613f5b84828501613b70565b91505092915050565b60006080820190508181036000830152613f7e8187613c23565b90508181036020830152613f928186613c23565b90508181036040830152613fa68185613c23565b9050613fb56060830184613bc5565b95945050505050565b600080600080600060a08688031215613fda57613fd96138e6565b5b600086013567ffffffffffffffff811115613ff857613ff76138eb565b5b61400488828901613a66565b955050602086013567ffffffffffffffff811115614025576140246138eb565b5b61403188828901613a66565b945050604086013567ffffffffffffffff811115614052576140516138eb565b5b61405e88828901613a66565b935050606061406f88828901613b70565b925050608061408088828901613b70565b9150509295509295909350565b60006080820190506140a26000830187613d71565b81810360208301526140b48186613c23565b905081810360408301526140c88185613c23565b905081810360608301526140dc8184613c23565b905095945050505050565b60006040820190506140fc6000830185613bc5565b6141096020830184613bc5565b9392505050565b600060a082019050818103600083015261412a8188613c23565b9050818103602083015261413e8187613c23565b905081810360408301526141528186613c23565b90506141616060830185613bc5565b81810360808301526141738184613c23565b90509695505050505050565b6000806000806000806000806000806101408b8d0312156141a3576141a26138e6565b5b60008b013567ffffffffffffffff8111156141c1576141c06138eb565b5b6141cd8d828e01613a66565b9a505060208b013567ffffffffffffffff8111156141ee576141ed6138eb565b5b6141fa8d828e01613a66565b99505060408b013567ffffffffffffffff81111561421b5761421a6138eb565b5b6142278d828e01613a66565b98505060606142388d828e01613b70565b97505060806142498d828e01613b70565b96505060a061425a8d828e01613939565b95505060c061426b8d828e01613b70565b94505060e061427c8d828e01613b70565b93505061010061428e8d828e01613b70565b9250506101206142a08d828e01613b70565b9150509295989b9194979a5092959850565b60006020820190506142c76000830184613d8c565b92915050565b600080600080600060a086880312156142e9576142e86138e6565b5b600086013567ffffffffffffffff811115614307576143066138eb565b5b61431388828901613a66565b955050602086013567ffffffffffffffff811115614334576143336138eb565b5b61434088828901613a66565b945050604086013567ffffffffffffffff811115614361576143606138eb565b5b61436d88828901613a66565b935050606061437e88828901613b70565b925050608086013567ffffffffffffffff81111561439f5761439e6138eb565b5b6143ab88828901613a66565b9150509295509295909350565b600080604083850312156143cf576143ce6138e6565b5b60006143dd85828601613b70565b92505060206143ee85828601613b70565b9150509250929050565b600060e08201905061440d600083018a613d71565b61441a6020830189613bc5565b6144276040830188613bc5565b6144346060830187613bc5565b6144416080830186613bc5565b61444e60a0830185613bc5565b61445b60c0830184613bc5565b98975050505050505050565b600060208201905061447c6000830184613bc5565b92915050565b7f4e487b7100000000000000000000000000000000000000000000000000000000600052601160045260246000fd5b60006144bc82613b4f565b91507fffffffffffffffffffffffffffffffffffffffffffffffffffffffffffffffff8214156144ef576144ee614482565b5b600182019050919050565b7f4e487b7100000000000000000000000000000000000000000000000000000000600052602260045260246000fd5b6000600282049050600182168061454157607f821691505b60208210811415614555576145546144fa565b5b50919050565b600081905092915050565b600061457182613bd4565b61457b818561455b565b935061458b818560208601613bf0565b80840191505092915050565b60006145a38284614566565b915081905092915050565b7f50726f706572747920616c7265616479206d61726b656420617661696c61626c60008201527f6500000000000000000000000000000000000000000000000000000000000000602082015250565b600061460a602183613bdf565b9150614615826145ae565b604082019050919050565b60006020820190508181036000830152614639816145fd565b9050919050565b7f4f6e6c792061646d696e2063616e205265676973746572206c616e6400000000600082015250565b6000614676601c83613bdf565b915061468182614640565b602082019050919050565b600060208201905081810360008301526146a581614669565b9050919050565b60008190508160005260206000209050919050565b600081546146ce81614529565b6146d8818661455b565b945060018216600081146146f3576001811461470457614737565b60ff19831686528186019350614737565b61470d856146ac565b60005b8381101561472f57815481890152600182019150602081019050614710565b838801955050505b50505092915050565b600061474c82846146c1565b915081905092915050565b7f41646d696e2063616e206f6e6c79207265676973746572206c616e64206f662060008201527f73616d6520636974792e00000000000000000000000000000000000000000000602082015250565b60006147b3602a83613bdf565b91506147be82614757565b604082019050919050565b600060208201905081810360008301526147e2816147a6565b9050919050565b7f537572766579204e756d62657220616c7265616479207265676973746572656460008201527f2100000000000000000000000000000000000000000000000000000000000000602082015250565b6000614845602183613bdf565b9150614850826147e9565b604082019050919050565b6000602082019050818103600083015261487481614838565b9050919050565b7f546869732070726f7065727479206973204e4f54206d61726b656420666f722060008201527f73616c6521000000000000000000000000000000000000000000000000000000602082015250565b60006148d7602583613bdf565b91506148e28261487b565b604082019050919050565b60006020820190508181036000830152614906816148ca565b905091905056fea26469706673582212200d2f6128fa1daadfd27f5ab9cf9c22dac4cf6582d2148fec578f61f9a3841a8464736f6c63430008090033",
  "immutableReferences": {},
  "source": "// SPDX-License-Identifier: MIT\r\npragma solidity >=0.5.0 <0.9.0;\r\n\r\ncontract Registry {\r\n    address public superAdmin;\r\n    uint public totalAdmins;\r\n\r\n    struct Admin {\r\n        address adminAddress;\r\n        string city;\r\n        string district;\r\n        string state;\r\n    }\r\n\r\n    struct LandDetails {\r\n        address owner;\r\n        address admin;\r\n        uint256 propertyId;\r\n        uint surveyNumber;\r\n        uint index;\r\n        bool registered;\r\n        uint marketValue;\r\n        bool markAvailable;\r\n        mapping(uint => RequestDetails) requests; // reqNo => RequestDetails\r\n        uint noOfRequests; // other users requested to this land\r\n        uint sqft;\r\n        uint256 latitude;\r\n        uint256 longitude;\r\n    }\r\n\r\n    struct UserProfile {\r\n        address userAddr;\r\n        string fullName;\r\n        string gender;\r\n        string email;\r\n        uint256 contact;\r\n        string residentialAddr;\r\n        uint totalIndices;\r\n        uint requestIndices; // this user requested to other lands\r\n    }\r\n\r\n    struct OwnerOwns {\r\n        uint surveyNumber;\r\n        string state;\r\n        string district;\r\n        string city;\r\n    }\r\n\r\n    struct RequestedLands {\r\n        uint surveyNumber;\r\n        string state;\r\n        string district;\r\n        string city;\r\n    }\r\n\r\n    struct RequestDetails {\r\n        address whoRequested;\r\n        uint reqIndex;\r\n    }\r\n\r\n    mapping(address => Admin) public admins;\r\n    mapping(address => mapping(uint => OwnerOwns)) public ownerMapsProperty; // ownerAddr => index no. => OwnerOwns\r\n    mapping(address => mapping(uint => RequestedLands)) public requestedLands; // ownerAddr => reqIndex => RequestedLands\r\n    mapping(string => mapping(string => mapping(string => mapping(uint => LandDetails))))\r\n        public landDetalsMap; // state => district => city => surveyNo => LandDetails\r\n    mapping(address => UserProfile) public userProfile;\r\n\r\n    constructor() {\r\n        superAdmin = msg.sender;\r\n    }\r\n\r\n    modifier onlyAdmin() {\r\n        require(\r\n            admins[msg.sender].adminAddress == msg.sender,\r\n            \"Only admin can Register land\"\r\n        );\r\n        _;\r\n    }\r\n\r\n    // SuperAdmin: Registers new admin\r\n    function addAdmin(\r\n        address _adminAddr,\r\n        string memory _state,\r\n        string memory _district,\r\n        string memory _city\r\n    ) external {\r\n        Admin storage newAdmin = admins[_adminAddr];\r\n        totalAdmins++;\r\n\r\n        newAdmin.adminAddress = _adminAddr;\r\n        newAdmin.city = _city;\r\n        newAdmin.district = _district;\r\n        newAdmin.state = _state;\r\n    }\r\n\r\n    // check if it is admin\r\n    function isAdmin() external view returns (bool) {\r\n        if (admins[msg.sender].adminAddress == msg.sender) {\r\n            return true;\r\n        } else return false;\r\n    }\r\n\r\n    // Admin: registers land\r\n    function registerLand(\r\n        string memory _state,\r\n        string memory _district,\r\n        string memory _city,\r\n        uint256 _propertyId,\r\n        uint _surveyNo,\r\n        address _owner,\r\n        uint _marketValue,\r\n        uint _sqft,\r\n        uint256 _latitude,\r\n        uint256 _longitude\r\n    ) external onlyAdmin {\r\n        require(\r\n            keccak256(abi.encodePacked(admins[msg.sender].state)) ==\r\n                keccak256(abi.encodePacked(_state)) &&\r\n                keccak256(abi.encodePacked(admins[msg.sender].district)) ==\r\n                keccak256(abi.encodePacked(_district)) &&\r\n                keccak256(abi.encodePacked(admins[msg.sender].city)) ==\r\n                keccak256(abi.encodePacked(_city)),\r\n            \"Admin can only register land of same city.\"\r\n        );\r\n\r\n        require(\r\n            landDetalsMap[_state][_district][_city][_surveyNo].registered ==\r\n                false,\r\n            \"Survey Number already registered!\"\r\n        );\r\n\r\n        LandDetails storage newLandRegistry = landDetalsMap[_state][_district][\r\n            _city\r\n        ][_surveyNo];\r\n        OwnerOwns storage newOwnerOwns = ownerMapsProperty[_owner][\r\n            userProfile[_owner].totalIndices\r\n        ];\r\n\r\n        newLandRegistry.owner = _owner;\r\n        newLandRegistry.admin = msg.sender;\r\n        newLandRegistry.propertyId = _propertyId;\r\n        newLandRegistry.surveyNumber = _surveyNo;\r\n\r\n        newLandRegistry.index = userProfile[_owner].totalIndices;\r\n        newLandRegistry.registered = true;\r\n        newLandRegistry.marketValue = _marketValue;\r\n        newLandRegistry.markAvailable = false;\r\n\r\n        newLandRegistry.sqft = _sqft;\r\n        newLandRegistry.longitude = _longitude;\r\n        newLandRegistry.latitude = _latitude;\r\n\r\n        newOwnerOwns.surveyNumber = _surveyNo;\r\n        newOwnerOwns.state = _state;\r\n        newOwnerOwns.district = _district;\r\n        newOwnerOwns.city = _city;\r\n\r\n        userProfile[_owner].totalIndices++;\r\n    }\r\n\r\n    // User_1: set user profile\r\n    function setUserProfile(\r\n        string memory _fullName,\r\n        string memory _gender,\r\n        string memory _email,\r\n        uint256 _contact,\r\n        string memory _residentialAddr\r\n    ) external {\r\n        UserProfile storage newUserProfile = userProfile[msg.sender];\r\n\r\n        newUserProfile.fullName = _fullName;\r\n        newUserProfile.gender = _gender;\r\n        newUserProfile.email = _email;\r\n        newUserProfile.contact = _contact;\r\n        newUserProfile.residentialAddr = _residentialAddr;\r\n    }\r\n\r\n    // User_1: mark property available\r\n    function markMyPropertyAvailable(uint indexNo) external {\r\n        string memory state = ownerMapsProperty[msg.sender][indexNo].state;\r\n        string memory district = ownerMapsProperty[msg.sender][indexNo]\r\n            .district;\r\n        string memory city = ownerMapsProperty[msg.sender][indexNo].city;\r\n        uint surveyNumber = ownerMapsProperty[msg.sender][indexNo].surveyNumber;\r\n\r\n        require(\r\n            landDetalsMap[state][district][city][surveyNumber].markAvailable ==\r\n                false,\r\n            \"Property already marked available\"\r\n        );\r\n\r\n        landDetalsMap[state][district][city][surveyNumber].markAvailable = true;\r\n    }\r\n\r\n    // User_2: Request for buy  **ownerAddress & index = arguements**\r\n    function RequestForBuy(\r\n        string memory _state,\r\n        string memory _district,\r\n        string memory _city,\r\n        uint _surveyNo\r\n    ) external {\r\n        LandDetails storage thisLandDetail = landDetalsMap[_state][_district][\r\n            _city\r\n        ][_surveyNo];\r\n        require(\r\n            thisLandDetail.markAvailable == true,\r\n            \"This property is NOT marked for sale!\"\r\n        );\r\n\r\n        uint req_serialNum = thisLandDetail.noOfRequests;\r\n        thisLandDetail.requests[req_serialNum].whoRequested = msg.sender;\r\n        thisLandDetail.requests[req_serialNum].reqIndex = userProfile[\r\n            msg.sender\r\n        ].requestIndices;\r\n        thisLandDetail.noOfRequests++;\r\n\r\n        // adding requested land to user_2 profile\r\n        RequestedLands storage newReqestedLands = requestedLands[msg.sender][\r\n            userProfile[msg.sender].requestIndices\r\n        ];\r\n        newReqestedLands.surveyNumber = _surveyNo;\r\n        newReqestedLands.state = _state;\r\n        newReqestedLands.district = _district;\r\n        newReqestedLands.city = _city;\r\n\r\n        userProfile[msg.sender].requestIndices++;\r\n    }\r\n\r\n    // User_1: Accept the buy request; sell.\r\n    function AcceptRequest(uint _index, uint _reqNo) external {\r\n        uint _surveyNo = ownerMapsProperty[msg.sender][_index].surveyNumber;\r\n        string memory _state = ownerMapsProperty[msg.sender][_index].state;\r\n        string memory _district = ownerMapsProperty[msg.sender][_index]\r\n            .district;\r\n        string memory _city = ownerMapsProperty[msg.sender][_index].city;\r\n\r\n        // updating LandDetails\r\n        address newOwner = landDetalsMap[_state][_district][_city][_surveyNo]\r\n            .requests[_reqNo]\r\n            .whoRequested;\r\n        uint newOwner_reqIndex = landDetalsMap[_state][_district][_city][\r\n            _surveyNo\r\n        ].requests[_reqNo].reqIndex;\r\n        uint noOfReq = landDetalsMap[_state][_district][_city][_surveyNo]\r\n            .noOfRequests;\r\n\r\n        // deleting requested land from all requesters AND removing all incoming requests\r\n        for (uint i = 0; i < noOfReq; i++) {\r\n            address requesterAddr = landDetalsMap[_state][_district][_city][\r\n                _surveyNo\r\n            ].requests[i].whoRequested;\r\n            uint requester_reqIndx = landDetalsMap[_state][_district][_city][\r\n                _surveyNo\r\n            ].requests[i].reqIndex;\r\n\r\n            delete requestedLands[requesterAddr][requester_reqIndx];\r\n            delete landDetalsMap[_state][_district][_city][_surveyNo].requests[\r\n                i\r\n            ];\r\n        }\r\n\r\n        landDetalsMap[_state][_district][_city][_surveyNo].owner = newOwner;\r\n        landDetalsMap[_state][_district][_city][_surveyNo]\r\n            .markAvailable = false;\r\n        landDetalsMap[_state][_district][_city][_surveyNo].noOfRequests = 0;\r\n\r\n        // deleting property from user_1's ownerMapsProperty\r\n        delete ownerMapsProperty[msg.sender][_index];\r\n\r\n        // adding ownerMapsProperty for newOwner\r\n        uint newOwnerTotProp = userProfile[newOwner].totalIndices;\r\n        OwnerOwns storage newOwnerOwns = ownerMapsProperty[newOwner][\r\n            newOwnerTotProp\r\n        ];\r\n\r\n        newOwnerOwns.surveyNumber = _surveyNo;\r\n        newOwnerOwns.state = _state;\r\n        newOwnerOwns.district = _district;\r\n        newOwnerOwns.city = _city;\r\n\r\n        landDetalsMap[_state][_district][_city][_surveyNo]\r\n            .index = newOwnerTotProp;\r\n\r\n        userProfile[newOwner].totalIndices++;\r\n    }\r\n\r\n    //******* GETTERS **********\r\n\r\n    // return land details\r\n    // function getLandDetails(\r\n    //     string memory _state,\r\n    //     string memory _district,\r\n    //     string memory _city,\r\n    //     uint _surveyNo\r\n    // ) external view returns (address, uint, uint, uint256, uint256[2] memory) {\r\n    //     address owner = landDetalsMap[_state][_district][_city][_surveyNo]\r\n    //         .owner;\r\n    //     // uint256 propertyid = landDetalsMap[_state][_district][_city][_surveyNo]\r\n    //     //     .propertyId;\r\n    //     uint indx = landDetalsMap[_state][_district][_city][_surveyNo].index;\r\n    //     uint mv = landDetalsMap[_state][_district][_city][_surveyNo]\r\n    //         .marketValue;\r\n    //     uint sqft = landDetalsMap[_state][_district][_city][_surveyNo].sqft;\r\n    //     uint256[2] memory location = [\r\n    //         landDetalsMap[_state][_district][_city][_surveyNo].latitude,\r\n    //         landDetalsMap[_state][_district][_city][_surveyNo].longitude\r\n    //     ];\r\n\r\n    //     return (owner, indx, mv, sqft, location);\r\n    // }\r\n    function getLandDetails(\r\n        string memory _state,\r\n        string memory _district,\r\n        string memory _city,\r\n        uint _surveyNo\r\n    )\r\n        external\r\n        view\r\n        returns (address, uint, uint, uint, uint, uint256, uint256)\r\n    {\r\n        LandDetails storage landDetails = landDetalsMap[_state][_district][\r\n            _city\r\n        ][_surveyNo];\r\n        // uint256[2] memory location = [landDetails.latitude, landDetails.longitude];\r\n        return (\r\n            landDetails.owner,\r\n            landDetails.propertyId,\r\n            landDetails.index,\r\n            landDetails.marketValue,\r\n            landDetails.sqft,\r\n            landDetails.latitude,\r\n            landDetails.longitude\r\n        );\r\n    }\r\n\r\n    function getRequestCnt_propId(\r\n        string memory _state,\r\n        string memory _district,\r\n        string memory _city,\r\n        uint _surveyNo\r\n    ) external view returns (uint, uint256) {\r\n        uint _noOfRequests = landDetalsMap[_state][_district][_city][_surveyNo]\r\n            .noOfRequests;\r\n        uint256 _propertyId = landDetalsMap[_state][_district][_city][_surveyNo]\r\n            .propertyId;\r\n        return (_noOfRequests, _propertyId);\r\n    }\r\n\r\n    function getRequesterDetail(\r\n        string memory _state,\r\n        string memory _district,\r\n        string memory _city,\r\n        uint _surveyNo,\r\n        uint _reqIndex\r\n    ) external view returns (address) {\r\n        address requester = landDetalsMap[_state][_district][_city][_surveyNo]\r\n            .requests[_reqIndex]\r\n            .whoRequested;\r\n        return (requester);\r\n    }\r\n\r\n    function isAvailable(\r\n        string memory _state,\r\n        string memory _district,\r\n        string memory _city,\r\n        uint _surveyNo\r\n    ) external view returns (bool) {\r\n        bool available = landDetalsMap[_state][_district][_city][_surveyNo]\r\n            .markAvailable;\r\n        return (available);\r\n    }\r\n\r\n    function getOwnerOwns(\r\n        uint indx\r\n    )\r\n        external\r\n        view\r\n        returns (string memory, string memory, string memory, uint)\r\n    {\r\n        uint surveyNo = ownerMapsProperty[msg.sender][indx].surveyNumber;\r\n        string memory state = ownerMapsProperty[msg.sender][indx].state;\r\n        string memory district = ownerMapsProperty[msg.sender][indx].district;\r\n        string memory city = ownerMapsProperty[msg.sender][indx].city;\r\n\r\n        return (state, district, city, surveyNo);\r\n    }\r\n\r\n    function getRequestedLands(\r\n        uint indx\r\n    )\r\n        external\r\n        view\r\n        returns (string memory, string memory, string memory, uint)\r\n    {\r\n        uint surveyNo = requestedLands[msg.sender][indx].surveyNumber;\r\n        string memory state = requestedLands[msg.sender][indx].state;\r\n        string memory district = requestedLands[msg.sender][indx].district;\r\n        string memory city = requestedLands[msg.sender][indx].city;\r\n\r\n        return (state, district, city, surveyNo);\r\n    }\r\n\r\n    function getUserProfile()\r\n        external\r\n        view\r\n        returns (\r\n            string memory,\r\n            string memory,\r\n            string memory,\r\n            uint256,\r\n            string memory\r\n        )\r\n    {\r\n        string memory fullName = userProfile[msg.sender].fullName;\r\n        string memory gender = userProfile[msg.sender].gender;\r\n        string memory email = userProfile[msg.sender].email;\r\n        uint256 contact = userProfile[msg.sender].contact;\r\n        string memory residentialAddr = userProfile[msg.sender].residentialAddr;\r\n\r\n        return (fullName, gender, email, contact, residentialAddr);\r\n    }\r\n\r\n    function getIndices() external view returns (uint, uint) {\r\n        uint _totalIndices = userProfile[msg.sender].totalIndices;\r\n        uint _reqIndices = userProfile[msg.sender].requestIndices;\r\n\r\n        return (_totalIndices, _reqIndices);\r\n    }\r\n\r\n    function didIRequested(\r\n        string memory _state,\r\n        string memory _district,\r\n        string memory _city,\r\n        uint _surveyNo\r\n    ) external view returns (bool) {\r\n        LandDetails storage thisLandDetail = landDetalsMap[_state][_district][\r\n            _city\r\n        ][_surveyNo];\r\n        uint _noOfRequests = thisLandDetail.noOfRequests;\r\n\r\n        if (_noOfRequests == 0) return (false);\r\n\r\n        for (uint i = 0; i < _noOfRequests; i++) {\r\n            if (thisLandDetail.requests[i].whoRequested == msg.sender) {\r\n                return (true);\r\n            }\r\n        }\r\n\r\n        return (false);\r\n    }\r\n}\r\n",
  "sourcePath": "C:\\Users\\kkesh\\Desktop\\land-registry\\contracts\\Registry.sol",
  "compiler": {
    "name": "solc",
    "version": "0.8.9+commit.e5eed63a.Emscripten.clang"
  },
  "schemaVersion": "3.4.12",
  "updatedAt": "2023-04-23T00:45:30.828Z",
  "networkType": "ethereum",
  "devdoc": {
    "kind": "dev",
    "methods": {},
    "version": 1
  },
  "userdoc": {
    "kind": "user",
    "methods": {},
    "version": 1
  }
}